{
  "_format": "hh-sol-artifact-1",
  "contractName": "KycLink",
  "sourceName": "contracts/kyc.sol",
  "abi": [
    {
      "inputs": [
        {
          "internalType": "string",
          "name": "hash",
          "type": "string"
        },
        {
          "internalType": "address",
          "name": "adx",
          "type": "address"
        }
      ],
      "name": "addWallet",
      "outputs": [],
      "stateMutability": "nonpayable",
      "type": "function"
    },
    {
      "inputs": [],
      "name": "getAllHash",
      "outputs": [
        {
          "components": [
            {
              "internalType": "string",
              "name": "key",
              "type": "string"
            },
            {
              "internalType": "address[]",
              "name": "value",
              "type": "address[]"
            }
          ],
          "internalType": "struct KycLink.MappingData[]",
          "name": "",
          "type": "tuple[]"
        }
      ],
      "stateMutability": "view",
      "type": "function"
    },
    {
      "inputs": [
        {
          "internalType": "string",
          "name": "hash",
          "type": "string"
        }
      ],
      "name": "getWallet",
      "outputs": [
        {
          "internalType": "address[]",
          "name": "",
          "type": "address[]"
        }
      ],
      "stateMutability": "view",
      "type": "function"
    }
  ],
  "bytecode": "0x608060405234801561001057600080fd5b50610e06806100206000396000f3fe608060405234801561001057600080fd5b50600436106100415760003560e01c8063276bf79e14610046578063560b318c14610062578063a4e2df6614610080575b600080fd5b610060600480360381019061005b9190610631565b6100b0565b005b61006a610191565b60405161007791906108d0565b60405180910390f35b61009a600480360381019061009591906108f2565b6103b3565b6040516100a791906109aa565b60405180910390f35b600080836040516100c19190610a08565b9081526020016040518091039020805490500361010e5760018290806001815401808255809150506001900390600052602060002001600090919091909150908161010c9190610c35565b505b60008260405161011e9190610a08565b9081526020016040518091039020819080600181540180825580915050600190039060005260206000200160009091909190916101000a81548173ffffffffffffffffffffffffffffffffffffffff021916908373ffffffffffffffffffffffffffffffffffffffff1602179055505050565b60606000600180549050905060008167ffffffffffffffff8111156101b9576101b86104a8565b5b6040519080825280602002602001820160405280156101f257816020015b6101df61045f565b8152602001906001900390816101d75790505b50905060005b828110156103aa576000806001838154811061021757610216610d07565b5b9060005260206000200160405161022e9190610db9565b90815260200160405180910390208054806020026020016040519081016040528092919081815260200182805480156102bc57602002820191906000526020600020905b8160009054906101000a900473ffffffffffffffffffffffffffffffffffffffff1673ffffffffffffffffffffffffffffffffffffffff1681526020019060010190808311610272575b505050505090506040518060400160405280600184815481106102e2576102e1610d07565b5b9060005260206000200180546102f790610a4e565b80601f016020809104026020016040519081016040528092919081815260200182805461032390610a4e565b80156103705780601f1061034557610100808354040283529160200191610370565b820191906000526020600020905b81548152906001019060200180831161035357829003601f168201915b505050505081526020018281525083838151811061039157610390610d07565b5b60200260200101819052505080806001019150506101f8565b50809250505090565b60606000826040516103c59190610a08565b908152602001604051809103902080548060200260200160405190810160405280929190818152602001828054801561045357602002820191906000526020600020905b8160009054906101000a900473ffffffffffffffffffffffffffffffffffffffff1673ffffffffffffffffffffffffffffffffffffffff1681526020019060010190808311610409575b50505050509050919050565b604051806040016040528060608152602001606081525090565b6000604051905090565b600080fd5b600080fd5b600080fd5b600080fd5b6000601f19601f8301169050919050565b7f4e487b7100000000000000000000000000000000000000000000000000000000600052604160045260246000fd5b6104e082610497565b810181811067ffffffffffffffff821117156104ff576104fe6104a8565b5b80604052505050565b6000610512610479565b905061051e82826104d7565b919050565b600067ffffffffffffffff82111561053e5761053d6104a8565b5b61054782610497565b9050602081019050919050565b82818337600083830152505050565b600061057661057184610523565b610508565b90508281526020810184848401111561059257610591610492565b5b61059d848285610554565b509392505050565b600082601f8301126105ba576105b961048d565b5b81356105ca848260208601610563565b91505092915050565b600073ffffffffffffffffffffffffffffffffffffffff82169050919050565b60006105fe826105d3565b9050919050565b61060e816105f3565b811461061957600080fd5b50565b60008135905061062b81610605565b92915050565b6000806040838503121561064857610647610483565b5b600083013567ffffffffffffffff81111561066657610665610488565b5b610672858286016105a5565b92505060206106838582860161061c565b9150509250929050565b600081519050919050565b600082825260208201905092915050565b6000819050602082019050919050565b600081519050919050565b600082825260208201905092915050565b60005b838110156106f35780820151818401526020810190506106d8565b60008484015250505050565b600061070a826106b9565b61071481856106c4565b93506107248185602086016106d5565b61072d81610497565b840191505092915050565b600081519050919050565b600082825260208201905092915050565b6000819050602082019050919050565b61076d816105f3565b82525050565b600061077f8383610764565b60208301905092915050565b6000602082019050919050565b60006107a382610738565b6107ad8185610743565b93506107b883610754565b8060005b838110156107e95781516107d08882610773565b97506107db8361078b565b9250506001810190506107bc565b5085935050505092915050565b6000604083016000830151848203600086015261081382826106ff565b9150506020830151848203602086015261082d8282610798565b9150508091505092915050565b600061084683836107f6565b905092915050565b6000602082019050919050565b60006108668261068d565b6108708185610698565b935083602082028501610882856106a9565b8060005b858110156108be578484038952815161089f858261083a565b94506108aa8361084e565b925060208a01995050600181019050610886565b50829750879550505050505092915050565b600060208201905081810360008301526108ea818461085b565b905092915050565b60006020828403121561090857610907610483565b5b600082013567ffffffffffffffff81111561092657610925610488565b5b610932848285016105a5565b91505092915050565b600082825260208201905092915050565b600061095782610738565b610961818561093b565b935061096c83610754565b8060005b8381101561099d5781516109848882610773565b975061098f8361078b565b925050600181019050610970565b5085935050505092915050565b600060208201905081810360008301526109c4818461094c565b905092915050565b600081905092915050565b60006109e2826106b9565b6109ec81856109cc565b93506109fc8185602086016106d5565b80840191505092915050565b6000610a1482846109d7565b915081905092915050565b7f4e487b7100000000000000000000000000000000000000000000000000000000600052602260045260246000fd5b60006002820490506001821680610a6657607f821691505b602082108103610a7957610a78610a1f565b5b50919050565b60008190508160005260206000209050919050565b60006020601f8301049050919050565b600082821b905092915050565b600060088302610ae17fffffffffffffffffffffffffffffffffffffffffffffffffffffffffffffffff82610aa4565b610aeb8683610aa4565b95508019841693508086168417925050509392505050565b6000819050919050565b6000819050919050565b6000610b32610b2d610b2884610b03565b610b0d565b610b03565b9050919050565b6000819050919050565b610b4c83610b17565b610b60610b5882610b39565b848454610ab1565b825550505050565b600090565b610b75610b68565b610b80818484610b43565b505050565b5b81811015610ba457610b99600082610b6d565b600181019050610b86565b5050565b601f821115610be957610bba81610a7f565b610bc384610a94565b81016020851015610bd2578190505b610be6610bde85610a94565b830182610b85565b50505b505050565b600082821c905092915050565b6000610c0c60001984600802610bee565b1980831691505092915050565b6000610c258383610bfb565b9150826002028217905092915050565b610c3e826106b9565b67ffffffffffffffff811115610c5757610c566104a8565b5b610c618254610a4e565b610c6c828285610ba8565b600060209050601f831160018114610c9f5760008415610c8d578287015190505b610c978582610c19565b865550610cff565b601f198416610cad86610a7f565b60005b82811015610cd557848901518255600182019150602085019450602081019050610cb0565b86831015610cf25784890151610cee601f891682610bfb565b8355505b6001600288020188555050505b505050505050565b7f4e487b7100000000000000000000000000000000000000000000000000000000600052603260045260246000fd5b60008154610d4381610a4e565b610d4d81866109cc565b94506001821660008114610d685760018114610d7d57610db0565b60ff1983168652811515820286019350610db0565b610d8685610a7f565b60005b83811015610da857815481890152600182019150602081019050610d89565b838801955050505b50505092915050565b6000610dc58284610d36565b91508190509291505056fea2646970667358221220d63dd52ec0ae414f2e774f83a5530cf8764586a3654d7ecd1cd4ef9afc61916164736f6c63430008180033",
  "linkReferences": {},
  "deployedLinkReferences": {}
}